:100000000C9454000C9473000C9473000C947300C3
:100010000C9473000C9473000C9473000C94730094
:100020000C9473000C9473000C9473000C94730084
:100030000C9473000C94C3000C9473000C94730024
:100040000C9473000C9473000C9473000C94730064
:100050000C9473000C9473000C9473000C94730054
:100060000C9473000C9473000C9473000C94730044
:100070000C9473000C9473000C9473000C94730034
:100080000C9473000C9473000C9473009601CE01D1
:10009000D5019D01DC013502E301C202A502B102D6
:1000A000C202BD02C202C20211241FBECFEFD0E4C1
:1000B000DEBFCDBF11E0A0E0B1E0E0E2F6E000E09D
:1000C0000BBF02C007900D92A231B107D9F721E012
:1000D000A2E1B1E001C01D92AD31B207E1F70E948B
:1000E000C7020C940E030C940000CF93DF93CDB79E
:1000F000DEB781E890E02BE0FC01208388E890E007
:100100002DE730E0FC01318320838FE690E022E090
:10011000FC01208384E890E0FC0111821082809130
:10012000000190910101A0910201B091030180931F
:10013000130190931401A0931501B09316018FE55C
:1001400090E02FE530E0F90120812068FC01208358
:100150000000DF91CF910895CF93DF93CDB7DEB745
:1001600081E890E0FC0110820000DF91CF910895BA
:10017000CF93DF93CDB7DEB781E08093120100000B
:10018000DF91CF9108951F920F9200905F000F9220
:10019000112400905B000F922F933F934F935F9336
:1001A0006F937F938F939F93AF93BF93EF93FF933F
:1001B000CF93DF93CDB7DEB78091130190911401F7
:1001C000A0911501B09116010197A109B109809381
:1001D000130190931401A0931501B093160180911F
:1001E000130190911401A0911501B0911601892B72
:1001F0008A2B8B2B91F40E94B80080910001909182
:100200000101A0910201B091030180931301909329
:100210001401A0931501B09316010000DF91CF9156
:10022000FF91EF91BF91AF919F918F917F916F91CE
:100230005F914F913F912F910F9000925B000F9033
:1002400000925F000F901F901895CF93DF9300D01E
:1002500000D0CDB7DEB769837A838B839C83898195
:100260009A81AB81BC818093000190930101A0939E
:100270000201B09303018091000190910101A091CE
:100280000201B09103018093130190931401A09394
:100290001501B093160100000F900F900F900F9072
:1002A000DF91CF910895CF93DF9300D01F92CDB708
:1002B000DEB789837B836A8389818A3031F48A81BE
:1002C0009B81BC018DE00E94530180EC90E0FC0119
:1002D0008081882F90E080729927892BB1F386EC7A
:1002E00090E02981FC01208380E090E00F900F9046
:1002F0000F90DF91CF910895CF93DF93CDB7DEB705
:100300008091180190911901CC01A0E0B0E040E08B
:1003100050E026E030E0841B950B2817390708F4DD
:10032000F5C08A5B9F4FFC010C94050383E090E0CD
:100330009093190180931801F3C0809117018130C7
:1003400059F480911A01893039F081E090E090935E
:1003500019018093180121C080911701823059F44E
:1003600080911A01882339F082E090E0909319017E
:100370008093180112C080911701833039F484E012
:1003800090E09093190180931801CAC083E090E037
:100390009093190180931801C3C0C2C085E090E01A
:1003A0009093190180931801BBC086E090E0909370
:1003B000190180931801B4C083E090E09093190173
:1003C00080931801ADC0809117018230B1F4809103
:1003D0001B0190911C01099781F080911B01909164
:1003E0001C01019690931C0180931B0186E090E014
:1003F000909319018093180137C0809117018230C2
:10040000E1F480911B0190911C010997B1F4809156
:100410001A01882339F085E290E0FC012081215007
:10042000FC01208310921C0110921B0186E090E0D9
:10043000909319018093180117C0809117018823A8
:1004400039F483E090E0909319018093180165C01E
:1004500080911701833009F060C084E090E09093B0
:1004600019018093180159C058C08091170181303B
:10047000B1F480911B0190911C01099781F080914A
:100480001B0190911C01019690931C0180931B010C
:1004900085E090E0909319018093180136C0809117
:1004A00017018130E1F480911B0190911C010997A3
:1004B000B1F480911A01893038F485E290E0FC01B2
:1004C00020812F5FFC01208310921C0110921B01E0
:1004D00085E090E0909319018093180116C08091F7
:1004E0001701882339F483E090E0909319018093F9
:1004F000180115C080911701833089F484E090E0E1
:1005000090931901809318010AC009C083E090E01C
:10051000909319018093180103C0000001C00000EE
:100520008091180190911901CC01A0E0B0E040E069
:1005300050E026E030E0841B950B2817390718F1AE
:10054000835B9F4FFC010C94050385E290E0FC0166
:1005500020812F5FFC01208310921C0110921B014F
:1005600012C085E290E0FC0120812150FC01208333
:1005700010921C0110921B0106C085E290E0FC0164
:10058000108201C000000000DF91CF910895CF9349
:10059000DF93CDB7DEB781E290E0FC01108282E20A
:1005A00090E02FEFFC01208384E290E02FEFFC012C
:1005B000208385E290E0FC01108285E290E027E054
:1005C000FC012083109219011092180164E670E07A
:1005D00080E090E00E9425010E94750080E290E09A
:1005E000FC01808180958093170185E290E0FC01F9
:1005F000808180931A010E947C0100008091120189
:100600008823E1F310921201E9CFEE0FFF1F0024BF
:10061000001C0BBE0790F691E02D0994F894FFCFD3
:100620000100000000000002000000005301000073
:020630000000C8
:00000001FF
